:020000022000DC
:1060000000000420756302005D6302005F6302000C
:106010006163020063630200656302000000000028
:1060200000000000000000000000000067630200A4
:1060300069630200000000006B6302006D630200F0
:10604000A59802006F6302005D9D02006F6302006D
:106050006F6302006F630200B19B02006F63020076
:106060006F6302006F6302006F6302006F630200E0
:106070006F6302006F6302006F6302006F630200D0
:106080006F630200457102006F6302006F630200DC
:10609000E17102006F6302004DEF02006F630200C6
:1060A0006F6302006F6302006F6302006F630200A0
:1060B0006F6302006F630200000000000000000038
:1060C0006F6302006F6302006F6302006F63020080
:1060D0006F6302006F6302006F6302006F63020070
:1060E0006F6302006F6302006F6302000000000034
:1060F000000000006F630200000000006F630200F8
:10610000000000000000000000000000000000008F
:10611000000000000000000000000000000000007F
:10612000000000000000000000000000000000006F
:10613000000000000000000000000000000000005F
:10614000000000000000000000000000000000004F
:10615000000000000000000000000000000000003F
:10616000000000000000000000000000000000002F
:10617000000000000000000000000000000000001F
:10618000000000000000000000000000000000000F
:1061900000000000000000000000000000000000FF
:1061A00000000000000000000000000000000000EF
:1061B00000000000000000000000000000000000DF
:1061C00000000000000000000000000000000000CF
:1061D00000000000000000000000000000000000BF
:1061E00000000000000000000000000000000000AF
:1061F000000000000000000000000000000000009F
:10620000354936480A1A02D0072291438D4634494F
:1062100034480A1A06D00722914381F309880222E2
:1062200082F3148830483149314A00F044F831484B
:106230003149324A00F03FF831483249324A00F0E1
:106240003AF832483249334A00F035F83248334997
:10625000334A00F030F833483349344A00F02BF821
:1062600033483449344A00F026F83448344900228F
:1062700000F02CF833483449002200F027F8334866
:106280003349091A082902DB002202604160314AC1
:1062900090471F481F49884205D00268043003B464
:1062A000904703BCF7E700208646EC46002000211B
:1062B000294A9047FEE7884207D0521A05D0037852
:1062C00001300B700131013AF9D17047884202D098
:1062D00002700130FAE770470000042000E003205C
:1062E0000000042000000420141D030024220020CC
:1062F00068220020D4630200D463020040FC020044
:10630000141D03002422002024220020A8FD0200E6
:10631000A8FD0200A8FD0200A8FD0200A8FD0200E1
:10632000A8FD0200A8FD0200A8FD0200131D030045
:10633000581D0300682200206822002068220020E7
:1063400000360020003600200036002000360020F5
:10635000005600209D63020049AE0200FEE7FEE702
:10636000FEE7FEE7FEE7FEE7FEE7FEE7FEE7FEE705
:10637000704700BF1048804710484FF0070188431E
:1063800085460F4880470F48016841F4700101605D
:10639000BFF34F8FBFF36F8FFFF732BF0A480B4930
:1063A0000B4A884207D0521A05D0037801300B708F
:1063B0000131013AF9D170477163020000000420F5
:1063C0001D93020088ED00E094FD020010220020E1
:0463D0002422002063
:1063D400F0B595B01D46164608460C4602F0DEFEA2
:1063E4001A9B0D93CDE9086500252B46082205A9C3
:1063F40020460A958DF82C500C9502F0ECFE079B74
:106404000293069B03939DF814308DF8115003F00A
:106414000302012A1DD1BDF81420059DC3F3C20354
:10642400C2F383168DF81030B20008230EA920465B
:1064340002F0D1FEC5F3952508AB0093324602ABBA
:106444000EA9284600F0E4FB204602F0ABFE15B08E
:10645400F0BD022AF8D1BDF81650C3F3C203C5F348
:1064640089158DF810300827082D2E4628BF0826D8
:106474003B4632460EA9204602F0ADFEAD1B08ABEA
:1064840002AA31460EA8374400F026FC002DEBD1B9
:10649400DAE70000014B01221A707047A92200209C
:1064A4007047000070B5124D06460FCD88B06C469B
:1064B4000FC495E80F00002E84E80F004FF0FF335F
:1064C4004FF00602CDE90023CDE90233094A0A4818
:1064D4004FF0EB7308BF00226946069303F078F986
:1064E40008B100F07FFD054B1E7008B070BD00BF01
:1064F400A8FD0200996402002422002068220020E2
:1065040007B5044B0093044A4023FFF761FF03B02F
:106514005DF804FB216502006922002038B50D4BAB
:106524000D4D002018700D4804782D5DD2B21C4624
:1065340065B1043004F06AF808B100F053FD084B6B
:106544001A7812B12378002BFBD038BD0C3003F03D
:106554004BFEF1E7A9220020B02B002024220020CA
:106564006822002008B50848084A0378D35C3BB188
:10657400043003F0F7FFBDE808400020FFF792BFA6
:106584000C3003F0DDFDF6E724220020B02B0020C0
:106594000120FFF787BF000008B5FFF7F9FF0448A3
:1065A400042100F09DFA034B01225A7108BD00BF7B
:1065B40084FD020038220020037813F0040216D070
:1065C40003F00303012B03D0022B09D001207047F1
:1065D4000A6800880232C0F3831002440A60F5E7B7
:1065E4000B684288023303EB92130B60EEE710460C
:1065F400704700002DE9F04F87B000230446861C45
:106604000DF107000F4615468DF8073000F0DEFF48
:10661400454801683960D0E90132134401335B1AFB
:10662400824600F21C4700F5836900F21448B34225
:106634001CD30020002D73D004F00F039B0143F002
:10664400050363F30F00DAF80020DAF8083013408A
:10665400033316444AF823009DF80700CAF8006083
:1066640000F0D8FF012007B0BDE8F08F01213846C3
:1066740001F0FFFF484602F017F8404602F014F814
:10668400DAF80400DAF808B0029000EA0B000330EC
:106694000AEB800002A9FFF78FFF029B50BB0BEAB5
:1066A40003020AEB820203F1020CD2680392013363
:1066B40003EA0B0B0AEB8B0B02F00302012ADBF853
:1066C4000C10CDF808C023D0022A16D083464046C9
:1066D40001F0EDFF10B1029BCAF804305946384668
:1066E40001F0C7FFDAE901231344DAF8002001338B
:1066F4009B1A9CE70BEA0300C9E7BDF80E30C3F30D
:10670400891303334FEA114B0CEB93030293DEE737
:10671400BDF80C30C3F383134FEA114B6344F5E720
:10672400A40544F006008EE77C2300200B4B0C48A4
:10673400FF2210B59A600022C3F81824C3E900228E
:10674400C3F8142483F8202402F0E1FC044610B9B1
:10675400044802F089FD204610BD00BF7C230020C0
:10676400C0FC0200FCFD020030B50A4C71B10A4ABB
:106774000A49121BD20800239A4201D1002030BDDD
:1067840031F82350854202D00133F5E7034654F82B
:106794003300F4E7D4FC020084FD0200242200202C
:1067A400094B013903EBC000032909D8DFE801F0E4
:1067B4000A02040604207047007970474079704744
:1067C4000020704702207047D4FC0200034BD3E939
:1067D4000030C31A58425841704700BF7C23002040
:1067E4002DE9F04387B0FFF7F1FF0646002840F09B
:1067F400F9807D4DC5F81804BFF34F8F6B68AC6802
:1068040002932340033305EB830002A9FFF7D4FE70
:10681400029B18B1D5F81824002A5FD004EA0302B9
:10682400991C013305EB8202234005EB8303D268F4
:10683400DB68049302F00303022B0392029160D1FC
:10684400BDF80E306948C3F38917502FB84628BFE6
:106854004FF0500868F38F1308F10801ADF80E30BB
:1068640002F06DFC0646002800F0A78002F096FCBA
:106874000023082203A9304602F0A3FC029924EA6B
:1068840001020132B8EB820F4FEA820332D95FFA78
:1068940088F85BB32140DCB2A8EB040803315FFA4B
:1068A40088F9A046524C05EB810108234246304644
:1068B40002F087FC34B108F108034A462146304609
:1068C40002F07FFC029B033703EB97070297D5F88E
:1068D4001834002B49D1D5F8104459E02A689A425B
:1068E4008FD86A60304607B0BDE8F08340491C4643
:1068F4009946DAE70C40E11C0823424605EB810186
:10690400DDE7012B59D1BDF80C303848C3F38311AE
:10691400062928BF062161F3891302318900ADF8E5
:106924000C3002F00CFC0646002846D002F036FC7F
:106934000023082203A9304602F043FC0027BDF8D7
:106944000C20C2F38312BB00974203F10803BED2AA
:1069540002994A1C21400331029205EB8101042271
:10696400304602F02EFC0137E9E7304602F01AFC0B
:10697400FFF72CFF80F00100C6B2B3E7E3685B7950
:1069840023B1236831461B6820469847E3681C6896
:10699400002CF3D1304602F005FC0DF107008DF810
:1069A400074000F013FED5F818340BB9029B6B6056
:1069B4009DF8070000F02EFEDAE7D5F8104454B92C
:1069C4000C4B0D480D49C01AC008000440F00200E9
:1069D40000F062F8CCE7236820469B689847E36898
:1069E4001C68ECE700267DE77C230020C0FC020045
:1069F40088230020D4FC0200FCFC0200E5FD020018
:106A04002DE9F74F224D04460F46924601A9012273
:106A14001846D5F808909B46FFF7ECFD20B3019E7D
:106A24004FF00008B21CD84508EB020126D11948E2
:106A3400002101F0D7FD80F31000000440EA144067
:106A4400E400731C04F0380403EA090306EA0906A7
:106A540044F0010405EB8303033644EA881444EA52
:106A64008724D86045F8264095F820341BB1FFF7F9
:106A7400B7FE0028FBD103B0BDE8F08F09EA01019D
:106A840005EB81015AF82830CB6008F10108CAE708
:106A94007C2300209827002000231A46FFF7B0BF6C
:106AA40007B50123019201AAFFF7AAFF03B05DF81D
:106AB40004FB07B5CDE9002302236A46FFF7A0FFD4
:106AC40003B05DF804FB1FB5CDE90123069B0393D6
:106AD40001AA0323FFF794FF05B05DF804FB00004F
:106AE40030B50F49D1F8102403460020144634B9B8
:106AF400DC6820714AB9C1F81034226030BDE46802
:106B04002579854206D02468F1E7D26811682160AE
:106B14001360F3E701300A28E8D14FF0FF30EDE7C6
:106B24007C230020094A38B50123D2F8104482F8A6
:106B340020341D4604B938BDE3685D7123682046DE
:106B44005B689847E3681C68F4E700BF7C23002077
:106B540007B503460846197A052911D05B7A2BB18B
:106B6400094A0A49019001F005FE0198084901907B
:106B740001F000FE019803B05DF804EB01F0EFBDF5
:106B8400002AF8D0F2E700BF08FE02000DFE020062
:106B94002DFE020030B5C38885B004460D4633B1DE
:106BA400144A00921449154A284601F0E3FD217A5B
:106BB40005291DD0637A4BB1A088FFF7F1FD104B76
:106BC400104953F82020284601F0D4FD227A0E4BB8
:106BD400A08853F8222003920021FFF7C5FD039AF1
:106BE4000A490346284605B0BDE8304001F0C2BD5D
:106BF40005B030BD08FE020018FE020010FE0200BF
:106C040094FE02000DFE0200B8FE020030FE0200F7
:106C14002DE9F04385B01F460C9D002395F80C9098
:106C24002B7306460C46904629463846FFF7B2FFBA
:106C3400B8F1060F09D8DFE808F00412181F28334A
:106C440040003146284601F095FD00222946384689
:106C5400FFF77EFF85F80C9005B0BDE8F08322684D
:106C64003146284601F086FDEFE7D4E9002331469A
:106C7400284601F07FFDE8E7A36800933146D4E994
:106C84000023284601F076FDDFE7E3680193A3685B
:106C940000933146D4E90023284601F06BFDD4E784
:106CA40023690293E3680193A36800933146D4E90E
:106CB4000023284601F05EFDC7E763690393236957
:106CC4000293E3680193A36800933146D4E9002357
:106CD400284601F04FFDB8E708292DE9F74F804613
:106CE4000E4617461C463CD8002593F80C901D739D
:106CF40019461046FFF74EFFDFF888A0DFF888B08A
:106D0400AE4231D918F805205946204601F032FD2B
:106D14000135082DF4D11949194DDFF870A020462A
:106D240001F028FD4FF0000B5E4522D918F80B2026
:106D34007E2A05D81046019208F048FB019A00B952
:106D44002E225146204601F015FD0BF1010BBBF13B
:106D5400080FE9D1012221463846FFF7F9FE84F8ED
:106D64000C9003B0BDE8F08F5146204601F002FDBF
:106D7400CEE72946204601F0FDFCE6E744FE02008A
:106D840042FE020040FE02003AFE020046FE0200FD
:106D94002DE9F04F364E87B04FF00009354B1B7884
:106DA4005FFA89F5AB4202D807B0BDE8F08F324BE9
:106DB400D3F800A01AF835000124D6E9001EA0F18A
:106DC4002002C0F1200304FA02F224FA03F313436D
:106DD40004FA00FC059301EA0C030093059B0EEAF8
:106DE40003030193DDE9002313430AEBC50B3BD0F6
:106DF400059B21EA0C012EEA0303C6E9001302F005
:106E0400C7FE01461AF835001C4DA0F12002C0F15E
:106E1400200304FA02F224FA03F31343D5E900C26F
:106E24008440134004EA0C040393A0F12002C0F14F
:106E3400200321FA03F3029401FA02F848EA030852
:106E4400DDE9023401FA00F7444508BFBB420BD127
:106E5400DBF8043043B19BF80120541E62426241C6
:106E6400551A69426941984709F1010996E700BF3B
:106E7400682800203828002070280020602800207E
:106E8400F8B506461E4800F091FBC0BB0125A6F1EB
:106E94002004C6F1200325FA03F305FA04F41C4385
:106EA400184BD3E900C2B5400CEA050002EA04011C
:106EB40001431F461DD1304602F06AFE124BD3E94E
:106EC400001288B129432243C3E90012D7E9002301
:106ED4001C430E4B0A4819681543C7E900540022A5
:106EE400BDE8F84000F01ABB21EA050122EA0402D9
:106EF400EAE72CEA050522EA0404C3E90054F8BDD4
:106F04004028002068280020602800203C28002019
:106F1400042A2DE9F34105460C46164639D902F0F8
:106F240067FDD8B11C4B1D491D601D4BDFF88480E3
:106F34001C701C4B00221E600023C1E900231A4967
:106F4400C1E90023013CE4B200260327FF2C0CD145
:106F5400164A1748002100F0CFFA03E002F010FDB2
:106F64000028DFD002B0BDE8F08105EBC40315F8BA
:106F740034009B788DF80660424601A98DF80470B0
:106F84008DF8053002F03EFD013CE4B20028DDD06E
:106F9400E8E70720E6E700BF70280020602800200B
:106FA400382800203C28002068280020956D020025
:106FB400CCFE0200856E020070B5084D084E002418
:106FC4002B789C4201D3002070BD3368012113F853
:106FD400340002F093FD0134F2E700BF38280020AA
:106FE400702800201FB50021039001AA44F201007B
:106FF400CDE9011100F004F805B05DF804FB0000D0
:1070040010B572B6FFF78EFDFFF7EAFB0028FBD13F
:10701400104B114C1149E41AE408240444F0010013
:10702400FFF73AFD0E4B1B68DB0700D500BE0D4988
:1070340044F00200FFF730FDBFF34F8F0A490B4BBA
:10704400CA6802F4E0621343CB60BFF34F8F00BF02
:10705400FDE700BFD4FC0200FCFC0200D0FE0200ED
:10706400F0ED00E0DCFE020000ED00E00400FA05B3
:10707400094A537891780133DBB2994208BF00235F
:10708400117899421FBF03705078182303FB002026
:1070940014BF0430002070477428002073B50546DF
:1070A40000240DF107000E468DF8074000F08EFA1B
:1070B4000DF10600FFF7DCFF90B10670094B9DF857
:1070C400062045605A709DF8070000F0A3FA24B921
:1070D400054B4FF48012C3F80021204602B070BD66
:1070E4000424F0E77428002000E100E0024B4FF490
:1070F4003C6043F001031847F0FE020038B50C4B26
:107104000C4C4FF40032C3F8802001254FF4803337
:10711400C4F84833C4F808336560FFF7E7FF064B4B
:10712400A56000241C60FFF7E1FF044B1C7038BD10
:1071340000E100E000100140902900208129002096
:10714400F8B51F4B1F491B680025C1F84051C1F811
:107154004451C1F84851C1F84C51C1F80051C1F82B
:1071640004514BB3D1F8044517490968641A24F053
:107174007F442F461A68A24209D8A41A15441A7CDF
:10718400DE691AB1D3E905201F749047AEB90F4ADE
:107194000F4B11781B788B4205D10133DBB2022BE4
:1071A40008BF0023137012780A4B43F822500A4B8D
:1071B4004FF48012C3F80021F8BD3346DAE700BF6C
:1071C4009429002000100140902900208D290020DE
:1071D4008C2900208429002000E100E02DE9F04FF3
:1071E400A24AA34913780978A24D994285B03CD0AC
:1071F4000133DBB2022B08BF002313709E491278BF
:107204009E4B0F6853F822003B1823F07F43002263
:107214000B602B6816461446944613B942B12B6092
:1072240006E0196881420ED902B12B60091A19606F
:1072340001272B68DFF84CA201934FF00008BEB978
:10724400DFF848B262E0401A0C44D968D3F81CE075
:10725400C3F800C031B13A1922F07F42C3E90121D9
:10726400DE611E4673460122D7E700263746E0E773
:107274003446F669804A63681268DFF814C2A0686D
:10728400991A21F07F41614500F2A88001442160F0
:10729400012222742A680023C4E90133E361002A2D
:1072A40040F0A5802C60CAE79BF802105A1CD2B2A9
:1072B40091428BF8002004BF00228BF80020182292
:1072C40002FB03B32A6819799C68022977D0032941
:1072D40000F08180012919D1207CB8B9D3E90312C7
:1072E400A2605A69E2609A69654BA2611B78002B1F
:1072F4000CBF0B4603466360BCE78C4200F09480ED
:107304008946C9690029F8D1002323749BF8003009
:107314009BF801209A42C7D12B68B8F1000F04D121
:10732400019A9A4201D1002F43D0002B79D0D3F88F
:1073340000A0544D504BD5F804751C68DFF85481F7
:107344003E1B98F8003026F07F4603369BB94FF475
:107354008033C5F84433C5F804334B4B4FF4003243
:107364004FF00109C3F880211A60C5F80090FFF7B7
:10737400BDFE88F80090B2452CBF5444A41924F0F3
:107384007F44C5F84045D5F80435DB1B23F07F4323
:10739400E41B033324F07F44A3420AD9D5F804350F
:1073A400C5F84035FFF7A2FE374B4FF40032C3F85F
:1073B4000021334B00221A7005B0BDE8F08F11464E
:1073C40091469FE71174D2690123002AFAD1002B58
:1073D4009CD02A609AE700231946F6E7D31A23F0D3
:1073E4007F43834234BFC31A0023236050E72168DC
:1073F4001368994213D8591A1160E26152E7091AC5
:10740400D8691A4638B1034618688842F7D3401A37
:107414001860184613462160E061DC610FE71346EB
:10742400F2E7FFF76BFEC4E74C4511D1D3692B603B
:1074340073B9DFF844E00120CDE90212CAF808006C
:10744400CEF800300E4B1870FFF750FEDDE9021243
:107454000B68C969C9F81C1011B1086803440B60B2
:107464002B68934218BF4FF001084DE78C29002088
:107474008D290020942900209029002084290020AF
:10748400802900200010014000E100E07428002061
:10749400FEFF7F008129002008B5FFF72FFE104B67
:1074A40000200B2218809A700E4B18600E4B187037
:1074B4000E4B18700E4B4FF48012C021C3F880217C
:1074C40083F814131A6002F18042A2F56F22C2F805
:1074D400080583F81113074BD2F804251A6008BD78
:1074E40074280020942900208C2900208D29002054
:1074F40000E100E090290020074B9B784BB132B1AA
:1075040028B10368187C20B959745A617047072060
:1075140070470820704700BF742800202DE9F74306
:10752400DFF8848098F8023005460E461746ABB360
:10753400A0B3042930D9436983B3437C0024012BCD
:107544000DF107000CBF8946A1468DF8074000F0F5
:107554003DF80DF10600FFF78BFDD8B10123037050
:107564000F4B4560D3F80435C0E90497C0E90236EF
:107574009DF8063088F801309DF8070000F04AF8BD
:1075840024B9084B4FF48012C3F80021204603B0FD
:10759400BDE8F0830424EFE70724F7E70824F5E7C0
:1075A4000010014000E100E074280020064A9278AF
:1075B4003AB130B1426922B1002202740221FFF7CC
:1075C4006DBD0820704700BF7428002070B5EFF32C
:1075D400108672B60C4A946801239CB993600B4BD5
:1075E4000B4DD3F8801029401160C3F88050D3F8B4
:1075F400841051604FF0FF32C3F88420047006B940
:1076040062B670BD0370FAE79829002000E100E03B
:10761400FC06FFBD084B9A6810B55AB150B9EFF398
:10762400108172B6054A1C6814605C6854609860E6
:1076340001B962B610BD00BF9829002000E100E046
:1076440070B5064D0646002455F8043B0BB1304690
:1076540098470134042CF7D170BD00BFB029002035
:10766400033080B240F2FD33984230B51FD8124B3C
:107674001A783AB91C895D892C440444A4B2B4F53F
:10768400806F0AD31A7DA2B99A8BDC8B2244024400
:1076940092B2B2F5806F0CD201220A8014461422F1
:1076A40002FB04335A8910445881002030BD09205C
:1076B400FCE70720FAE700BFE42900200B4A0C4B43
:1076C4005188142000FB0131CB6833B90420496888
:1076D40010700122074801F0E3BA0749052313702B
:1076E40002238B80012209680023F3E7C8290020C4
:1076F400E429002010220020AC2A002007B5002332
:1077040005490093054A09680548082301F032FA3F
:1077140003B05DF804FB00BFAC2A002004FF0200A4
:107724001022002007B5002301460093034A0448B1
:10773400082301F01FFA03B05DF804FBFCFE02000D
:107744001022002013B500230C4600930146084A7A
:107754000848042301F00EFA38B90749142303FB3F
:1077640004140123237402B010BD0E20FBE700BFF4
:10777400F8FE020010220020E429002037B50A4850
:107784000A4B42689C8819685388032503330570A3
:107794009BB2002000909B0001EB8401044801F09F
:1077A400E9F903B030BD00BFC8290020AC2A00208D
:1077B4001022002010B50146044800F047FE1C22A8
:1077C4000446002107F082FE204610BD982A0020BE
:1077D40068B10268084B9A4209D14068074B984245
:1077E40007D00133984214BF0320012070470320BF
:1077F40070470020704700BFDEC0ADDEFE011EF101
:107804004388033300EB8303994209D382884FF6FC
:10781400FF739A4206D00088B0FA80F0400970479E
:1078240002207047012070472DE9F0410D460223E4
:10783400154F2B80164600F5805100F108044FF0D7
:1078440001088C420ED2236801330BD02046FFF787
:10785400D7FF48B10EB186F80080022809D14FF451
:1078640080632B80BDE8F081A3683A68934200D915
:107874003B602B886288033313442B806388033373
:1078840004EB8304DDE700BFDC29002038B5144B8A
:1078940014220D4602FB00302B68446804F5805125
:1078A400A3B15C88033403EB84048C4215D22368AF
:1078B400013312D02046FFF7A3FF012808D0022885
:1078C4000BD00028F1D12C60012038BD0834ECE73E
:1078D4006388033304EB8304E7E70020F5E700BF84
:1078E400E4290020426873B504460D4662B3234B75
:1078F400D9688A4228D31B699A4225D812F0030317
:1079040022D11F490089098988421DD120689168C4
:10791400884219D11B494868824203D900F5805036
:1079240082420DD389698A420CD901F580518A4279
:1079340008D201222A80B3FA83F0400902B070BD54
:107944001A46F7E70A23F6E700232B801E46019622
:10795400288801A9FFF79AFF30B92B8801339BB21D
:10796400012B2B80F3D9E9E7019B226899689142A6
:10797400EED16360024B1B892381DFE710220020D4
:10798400C8290020E42900202DE9F8431C461C4B9B
:107994001B7806460F4615466BB372B36CB3DFF81B
:1079A40068804FF01409A388012B01D90A2020E034
:1079B40009FB03F318F803302BB9A0882146FFF71D
:1079C40065FF20B92060A3880133A380EBE7236817
:1079D4001EB1998832889142EFD11FB119883A8833
:1079E4009142EAD19A68C5E90023064B1B892B8191
:1079F4000020BDE8F8830220FBE70520F9E700BF7B
:107A0400C0290020C8290020E429002008B5074B1C
:107A14005888191DFFF73AFF18B1BDE80840FFF771
:107A2400ADBEBDE80840FFF749BE00BFC82900202D
:107A34002DE9F04FA14FDFF8A89289B00646B84669
:107A44003B6823B99E48494600F03AFD3860D8F8AF
:107A5400005029784B1E052B07D8DFE813F02100CE
:107A640079007900090109015E010F241422002123
:107A740003A807F02BFD41F61D539C4208BF0024C8
:107A8400D8F8003004941A78013A052A00F2EF81FC
:107A9400DFE812F0DB01DF01FF010F021B02250208
:107AA40026B1884B00225A600124DFE72B79032B8F
:107AB4001DD8DFE803F015022A3583490B78022B21
:107AC400084619D00B7D022B4FF0010316D1142266
:107AD4005343C2180020C8545068FFF723FE03E044
:107AE40001232B71FFF70AFE002800F0BC80754BC0
:107AF40000225A600E24B9E70023E8E7714A1370A4
:107B04000023536041F61D54B0E7704970480023C8
:107B140002222B718A800968012201F0C1F8E3E78F
:107B24006A4C00262E712068674DFFF7FBFD694BF8
:107B3400D4F800C05A8814235343EA18EE54516809
:107B44002160A188C2F804C011810222A280CBE77F
:107B5400B5F814A0AA7DDFF870B1AEB1022AEB88A3
:107B640006D9142101FB0AB1DA1C088902440A81EE
:107B7400142202FB0ABAC3F57F43BAF80A20FD3384
:107B84001344AAF80A308FE7142303FB0AB31889B5
:107B94005C6804EB8004062A68D8DFE802F0274D0D
:107BA40035431D59040041F61D54AA7DEB88022A71
:107BB40006D9142101FB0AB1DA1C088902440A819E
:107BC400142202FB0ABAC3F57F43BAF80A20FD3334
:107BD4001344AAF80A3049E73F4840490023436068
:107BE400AB690360FFF77EFE002859D00223AB7512
:107BF400002300930423EA182146354800F0BAFF15
:107C0400002830D00E24D0E72B69002B14BF0323A7
:107C14000123AB750023009305F10C02042304F146
:107C24000801EAE70123AB750022EB8800922A6978
:107C34009B0004F10C01E0E703290CBF0523062394
:107C4400AB7500230093042305F10802E118D4E77F
:107C54000623AB75214B19881F4B5868FFF772FD3B
:107C640004460028A1D109B0BDE8F08F0F249CE799
:107C7400002E7FF419AF2B79012B33D0022B3FF464
:107C840041AF002B7FF4F1AE02232B710DF10A01F9
:107C9400EB68039303A8CDE90466FFF723FE08B954
:107CA4000A24E3E60498BDF80A108388EB8003886D
:107CB4002B81FFF747FD044625E000BFE0290020A3
:107CC400982A0020C0290020E4290020AC2A0020A2
:107CD40010220020C8290020A4290020B82A00204E
:107CE400D82900207F4B03AA3146A81DFFF74CFE7C
:107CF4007C4B044658B999880498FFF723FD044641
:107D04000A2C3FF4FFAE002C7FF4B0AEABE70822A0
:107D14003146184607F0DAFBF2E7002E7FF4C4AED2
:107D2400714B1A7BB2B11E731A78013A062A3FF6D8
:107D34009CAE01A151F822F0E37D0200097E02000D
:107D4400277E02002D7E02006F7A0200337E02003D
:107D5400457E02001A78072AE6D801A151F822F0DC
:107D6400857D02002D7D02002D7D0200AB7D020089
:107D7400BF7D0200DF7D0200DF7D0200A77D0200DF
:107D84001A895A4901321A8100225A801A730A78D0
:107D9400B2FA82F252099A720A7DB2FA82F2520956
:107DA400DA72012207E0524958688A88408803320F
:107DB40002448A8002221A70B6E74C4C5A884C4915
:107DC400142505FB024208685468506088881081B5
:107DD40002228A800C600622EDE70722EBE79A7AFA
:107DE40032B9DA7A8AB900221A705A805A6089E65E
:107DF4003E4900229A72CA68002AF2D1097C0029FD
:107E0400EFD05A80FFF702FE55E70022DA72374AB4
:107E1400116A0029E7D192F82420002AE3D0012234
:107E2400EFE7FFF7ABFC46E7FFF748FC43E72F4AD1
:107E34005B88142101FB03235868FFF773FC3AE7BE
:107E440000225A60FFF75AFC35E700238DF80C3006
:107E54000DE001228DF80C201A89ADF818209A88BB
:107E6400DB680593ADF81A2000238DF81C3003A8B5
:107E7400FFF7E6FB002649461E48C8F8006000F0FC
:107E84004AFB1D48012100F000FC00287FF4D8AD16
:107E9400E9E602228DF80C201A89ADF818209A8898
:107EA400ADF81A20DA689B7D05929A1F534253411C
:107EB400DBE703228DF80C20DA88ADF818201A8944
:107EC400DB68ADF81A200593D1E704228DF80C2065
:107ED400DB88ADF818300023ADF81A30F3E705233A
:107EE400B4E700BFBC2A0020C8290020E4290020F0
:107EF400AC2A0020982A0020A82A00204068FFF716
:107F040097BD000008B50548012100F0A6FB18B98B
:107F1400BDE80840FFF78CBD08BD00BFA82A0020BB
:107F24002DE9F3419846354B1B7806460D46002B48
:107F34005BD000295BD009884FF6FF73994258D073
:107F44006B88002B55D06B689B0754D14AB92F8995
:107F54000DF102013846FFF783FB30B102B0BDE8F2
:107F6400F08113885788ADF8023001A8FFF722FC8E
:107F7400044658B9BDF80230214A142101FB0323F9
:107F840058890338C01B58810820E7E780F800802F
:107F940000238375BDF8023083826B68036101217D
:107FA400184800F066FB2B882381B8F1030F6B8817
:107FB400A38004BF0423A3754FF0000508BF3368F2
:107FC400E06008BFA3611048E780658101A900F063
:107FD40067FA36B1E36833600C4B75601B89B57280
:107FE4003381FFF78FFF0020B8E70220B6E70520B2
:107FF400B4E70420B2E70320B0E700BFC0290020A3
:10800400E4290020DC290020982A0020C829002027
:1080140008B5034607480268042A08D00168064ADE
:1080240042F82130012100F024FB002008BD0C207F
:10803400FCE700BFB42A0020B02900202DE9F04F4E
:1080440014228BB000210DEB020007F03FFA754AB1
:10805400137803F0FF01CDE901123BB105A8FFF746
:10806400EFFA002630460BB0BDE8F08F029B181DD6
:1080740000F017FB0028F4D140F6F8734FF080525B
:108084001B685C1C08BF684B684C08BF1B681169FF
:108094005269581C08BF02FB01F323616449A3F52C
:1080A400405300222046E36000F032FD039406466C
:1080B4000028D7D15F496048DFF88891DFF88881CC
:1080C4001C238C2200F08DF9B24635464FF0030B89
:1080D4003446039BDF68574438463946FFF778FB3C
:1080E40001284AD0032815D0002835D11421614332
:1080F40008EB010208F80100576001F11002083191
:10810400424441443846FFF78FFB45F002050134F1
:10811400A4B221E007F580520868013074D104311B
:108124009142F9D1D9F800203AB902220123C9F8C1
:108134000070A9F8042001930CE014226243022089
:1081440008EB020108F802003C4A4F6054800134F5
:108154000881A4B245F001050AF5805ABAF5405FDA
:10816400B7D1BBF1010F98BF0025EDB2022D02D0AB
:10817400062D20D045BB0B2674E7019B63B1142266
:10818400624308EB0201022008F802000134D9F826
:1081940000204A600881A4B200222949C9F800706D
:1081A4003846FFF741FBB9F80420022A0CBF042229
:1081B40008221543D0E7029A0123137005A800236F
:1081C4005360FFF73DFA4DE704A8FFF7F3FAC8B18F
:1081D4000123013D03700A2D09D8DFE805F00608E4
:1081E4000608070807080F110F000023037104A9EC
:1081F400114800F055F9FFF785FE33E70323F5E74F
:108204000223F3E708262DE70BF1FF321FFA82FB66
:108214001422624308EB02014F60032108F80210A4
:1082240075E700BFC02900201410001010220020A0
:10823400F80003000C2A0020982A0020C8290020F6
:10824400B02A0020AC2A0020E429002073B50D4692
:108254000446C8B1C1B10DF10601FFF743FBA8B153
:108264000B4BBDF806006668142202FB00300121A6
:108274000C3000F0FEF963682E600C336B60012350
:10828400A372002002B070BD0520FBE70A20F9E7C5
:10829400E429002013B50446A8B10DF10601FFF747
:1082A40021FB90B10B4ABDF80630142101FB0323D6
:1082B400DA6862B1A27A52B1DA680020013ADA606F
:1082C400A07202B010BD0520FBE70A20F9E70620E2
:1082D400F7E700BFE429002002230022FFF720BEB5
:1082E40018B103230022FFF71BBE052070470000CE
:1082F400104B1B7813B50446ABB14FF6FF7398428D
:1083040013D001A8FFF756FA88B10523037001239F
:108314000371C48001A9084800F0C2F8FFF7F2FD18
:10832400002002B010BD0220FBE70420F9E708207A
:10833400F7E700BFC0290020982A00200E4B1B78C5
:1083440007B5A3B101A8FFF735FA90B1062303706E
:1083540001A90A4800F0A4F8094B1A780AB10122CD
:108364001A73FFF7CFFD002003B05DF804FB022071
:10837400FAE70820F8E700BFC0290020982A002067
:10838400C829002007B5ADF80600ADF804100DF1BA
:10839400060001A9FFF7F8FA03B05DF804FB07B57E
:1083A4001346ADF806000A4600200DF10601FFF75A
:1083B400EBFA03B05DF804FB07B51346ADF806000D
:1083C4000A460DF106000021FFF7DEFA03B05DF85E
:1083D40004FB20B119B103680B600020704705202D
:1083E400704710B561B1B2FBF3F403FB1424A4B2DB
:1083F40044B9C0E9001484608281C381204610BD61
:108404000E20FCE70920FAE782B050E8022FC18869
:10841400B2EB324F4FF0000317BF92B241EA014171
:1084240042EA014104E04268B2EB324F08BF012343
:1084340040E80212002AE8D18DF807309DF8073091
:10844400002B0CBF1120002002B0704737B550E854
:10845400013F9DB2C48925448489A54228BF2D1BB0
:108464000489A54202BFBFF32F8F002207E0C5EAAB
:10847400030540E80154002CE9D14FF001028DF8C6
:1084840003200193019B9DF803200B6002F0FF037E
:1084940022B10B880068184403B030BD1846FBE7CE
:1084A4000A884B889A4209D150E8012FC2EA024255
:1084B40040E80123002BF7D10120704700207047CA
:1084C40037B550E8023F1FFAA3F5C488A54202BF9E
:1084D400BFF32F8F00220DE0C48925448489A5426F
:1084E40028BF2D1BC3EA054540E80254002CE8D1FF
:1084F4004FF001028DF803200193019B9DF80320A6
:108504000B6002F0FF0322B14B880068184403B0EB
:1085140030BD1846FBE70A884B889A4209D150E8D7
:10852400022FC2EA224240E80223002BF7D10120A5
:1085340070470020704701F01F024B090121914050
:1085440000EB830000F065B84B0910B501F01F047F
:108554000121A14000EB830000F04FF8E04000F05F
:10856400010010BD01F01F0301229A404B0900EBEA
:108574008300D14300F065B84B0901F01F0150F8A6
:108584002300C84000F0010070472DE9F0474F1E5A
:108594007F0980460E460137002558F8254008EB30
:1085A4008509E44394FAA4F4B4FA84F44FEA451A2E
:1085B400202C06D10135AF42EFD834462046BDE821
:1085C400F0875444A642F5D921464046FFF7BCFF44
:1085D4000028F3D0D9F80040E44394FAA4F4B4FAA0
:1085E40084F4E5E710B5034653E8000F0A4643E870
:1085F400002494F0000FF7D110BD10B5034653E8E2
:10860400000F40EA010243E8002494F0000FF6D181
:1086140010BD10B5034653E8002F42EA010043E8B9
:10862400000494F0000FF6D110BD10B5034653E8D2
:10863400000F00EA010243E8002494F0000FF6D191
:1086440010BD10B5034653E8002F02EA010043E8C9
:10865400000494F0000FF6D110BD10B5034653E8A2
:10866400000F00EB010243E8002494F0000FF6D160
:1086740010BD10B5034653E8002F02EB010043E898
:10868400000494F0000FF6D110BD10B5034653E872
:10869400002FA2EB010043E8000494F0000FF6D190
:1086A40010BD0121FFF7A9BF0121FFF7B2BF0021CF
:1086B400FFF7BBBF10B590B1D0E9012301689B1A45
:1086C400DBB20A60013BDBB2FF2B026802D100205F
:1086D400107110BD11684C1C14600B70F2E70E2071
:1086E400F7E737B5054600240DF107008DF807407C
:1086F400FEF76CFF2A686B68116899420ED9481E10
:10870400106011F8014CEB68298A01FB0434AB6852
:1087140011791B1ADBB2994238BF13719DF8070017
:10872400FEF778FF204603B030BD37B50546002379
:108734000DF107000C468DF80730FEF747FF2A6855
:108744001368591C1160E968641A298AB4FBF1F4AE
:108754001C709DF80700FEF75DFF03B030BD826812
:1087640010B504462AB1436901680069984700239B
:10877400A36010BD0EB403B5039921B104AB01AAE3
:10878400019300F077F802B05DF804EB03B0704792
:108794000A2938B504460D4602D10D21FFF7F8FF2A
:1087A400A3682268591CA160D554D4E901329A42C5
:1087B40004D32046BDE83840FFF7D1BF38BD0000E0
:1087C4002DE9F84F9846DDE90A43154682460F46DF
:1087D4000A464FF00109AA420FD2C14538BFC1462B
:1087E40013F0010B01D16CB900240126B8F1010F7B
:1087F4001BD908F1FF386E43F8E709F10109B2FB10
:10880400F5F2E8E79B070ED5B8F1000F0CBF302650
:108814002026A145E9D2013C31465046FFF7B8FF76
:10882400002CF6D1E0E72026F3E7B7FBF6F39D42F0
:10883400E1D9DFF83C80B7FBF6F3504618F8031093
:1088440006FB1377FFF7A4FF3346AB42B6FBF5F6FE
:10885400F1D2BBF1000F02D00CB1A14501D3BDE8A8
:10886400F88F20215046013CFFF792FFF4E700BF48
:108874000CFF02002DE9F74F0546174688460029EC
:1088840000F0428118F8011B49B92B7B002B00F042
:108894003B81284603B0BDE8F04FFFF760BF2529B0
:1088A40040F0B780002698F800302D2B424608F19E
:1088B400010823D0302B24D02B2B25D000242A2BA5
:1088C40002F1010123D13B681A1D1B683A601C4464
:1088D4000A4613782E2B26D101324FF0000A104697
:1088E40010F8011BA1F1300CBCF1090F1DD80A23AB
:1088F40003FB0A13A3F1300A0246F0E746F001062F
:10890400D1E746F00206CEE746F00406CBE711F8BD
:10891400013CA3F130000928DBD80A2202FB04340D
:10892400303C0A46CBE74FF0000A12F8011B01F075
:10893400FB0068289046F8D0782909D86F290CD80C
:10894400632962D022D8252963D0582900F0888071
:1089540098F80030002B95D197E770390829F7D89B
:1089640001A353F821F000BFE78A020055890200F1
:1089740055890200758A020055890200538A020053
:108984005589020055890200658A0200642901D0D4
:108994006929DDD13A68D2F80090111D89EAE9729B
:1089A4003960A2EBE9724FF0010B092A35DCD3459B
:1089B40038BFD3462CB1B9F1000F01DB720700D5E3
:1089C400013CB30702D5BAF1000F03D0F00701D47C
:1089D4004CBB0024B9F1000F2DDAC9F100092D2197
:1089E4002846FFF7D5FE06F00302022A04D1BAF1A5
:1089F400000F01D11CBB0024CDE9004653460A22D6
:108A040049462846FFF7DCFEA2E73B681A1D1978A1
:108A14003A602846FFF7BCFE9AE70A230BF1010BE4
:108A2400B2FBF3F2C1E7A345D4D220212846013C8E
:108A3400FFF7AEFECCE77107D5D52B21D0E7A345D0
:108A4400DAD230212846013CFFF7A2FED2E739688A
:108A5400CDE900460A1D3A6053460A220968D0E768
:108A640039680A1D3A60CDE9004653461022F5E7FD
:108A74003B681A1D3A6016F00106D3F8009028D11D
:108A8400B9F1000F03D0484606F075FD0646B4421E
:108A940000D904BB09F1FF3919F8011F00293FF47B
:108AA40057AF2846FFF774FEF6E728460136FFF76E
:108AB4006FFE19F806100029F7D1A642BFF448AF9B
:108AC400002C3FF445AF20212846013CFFF760FE0F
:108AD400F3E70026EDE720212846013CFFF758FE86
:108AE400D5E73B681A1D3A60302128461C68FFF719
:108AF4004FFE78212846FFF74BFE00220823CDE9DC
:108B04000032214610227CE703B0BDE8F08F00BF9D
:108B140013B50B46114680B9104B1148114AC01ABF
:108B24000E23C0080093104B0004104940F00100CC
:108B3400FDF7C9FF0E2002B010BD4BB9074B084822
:108B44000B4AC01AC0080E2300930004064BECE73E
:108B540003601B6802B0BDE810401847D4FC020053
:108B640014FD02001CFF0200B200030021FF0200FA
:108B740050FF02002DE9F34188B93D4B3D483E4A80
:108B8400C01AC0080E243D4B009400043C4940F038
:108B94000100FDF798FF204602B0BDE8F0814AB914
:108BA400334B3448374AC01AC0080E24334B009460
:108BB4000004EBE7D0F800E0BEF1000F09D12C4B24
:108BC4002C48314AC01AC00808242C4B00940004D5
:108BD400DCE74BB9264B27482C4AC01AC0080924A5
:108BE400264B00940004D1E74568D5F80480B3FB14
:108BF400F8F508FB15354DB11D4B1E48244AC01A23
:108C0400C00809241D4B00940004BFE78D0709D058
:108C1400174B18481F4AC01AC0081024174B009459
:108C24000004B3E712F0030F09D0114B11481A4A9C
:108C3400C01AC0081024114B00940004A6E7C568AC
:108C4400A9420BD34D1EEC180569AC4206D8DEF8D8
:108C54000C40A44602B0BDE8F0416047044B05480F
:108C64000E4AC01AC0081024044B009400048DE777
:108C7400D4FC020014FD02001CFF0200C400030027
:108C840021FF02009EFF02004AFF02005DFF020076
:108C9400A4FF0200CEFF0200E6FF02000900030069
:108CA400F7B580B92A4B2B482B4AC01AC0080E24AA
:108CB4002A4B009400042A4940F00100FDF703FF09
:108CC400204603B0F0BDD0F800C0BCF1000F09D1BC
:108CD4001F4B2048234AC01AC00808241F4B009485
:108CE4000004E8E74AB91A4B1A481F4AC01AC008D8
:108CF40009241A4B00940004DDE74768D7F800E024
:108D04000EF1FF370F4209D0114B1248174AC01A0F
:108D1400C0081024114B00940004CCE7C768B94282
:108D24000CD304694D1E0EFB0255A54206D8DCF88F
:108D34001040A44603B0BDE8F0406047044B05482A
:108D44000B4AC01AC0081024044B00940004B2E774
:108D5400D4FC020014FD02001CFF0200D700030033
:108D640021FF02004AFF02005DFF02003000030001
:108D74005600030029DF704728DF704770B5036889
:108D84009E6886B004460D466EB1142200216846E2
:108D940006F09CFBA3680593237901952BB1012B65
:108DA4000DD06846B04706B070BD01238DF8003081
:108DB40023690293E368039363690493F1E702234D
:108DC4008DF80030E3681B030293F5E7084670470B
:108DD40000207047024B187A003818BF01207047F2
:108DE400602B0020034B187A0122B0FA80F05A74E9
:108DF40040097047602B002008B510461A4606F05B
:108E04003CFB002008BD000008B5142200210448E2
:108E140006F05CFB0348FFF7F7FA002008BD00BF2B
:108E2400602B0020502B002010B5094C094B4360E7
:108E34002046FFF736FC40B906F06CF8064920746A
:108E44001C2306488C22FFF7CCFA002010BD00BF7B
:108E5400602B0020EC000300C42A0020502B0020CB
:108E640070B5244C244E237A25463BB92349244823
:108E7400FFF726FB306008B9606070BD02233468D8
:108E84002B72237973B1012B24D020460321FFF7E1
:108E940075FF00232B726B6018491948BDE87040B8
:108EA400FFF739BBD4E90523D21AB2F5805FD4E9C0
:108EB400031028BF4FF480529208012A38BF0122C0
:108EC40019441844FFF756FF50B11128DDD101238E
:108ED4002B72D2E7D4E903031844FFF74DFFF3E7FD
:108EE4002B7C002BC9D10146BDE87040022000F064
:108EF40009B800BF602B0020782B0020742B0020C1
:108F0400502B002038B5831E012B45D8234C237ADF
:108F1400002B41D0022B09D1032830D0204B002252
:108F24001B68E2601A793AB1012A22D0637C7BBBC8
:108F3400BDE83840FFF794BFD3E905128D1AB5F5A3
:108F4400805F94BF521902F580529A619142EDD12B
:108F540002284FF0000308BF19462372104B18BFB4
:108F64000D211868FFF70AFF0E490F48FFF7D3FADF
:108F7400DCE71A6901321A615B699A42E7E7E36840
:108F84000133082B01D8E360D0E70023E360DFE777
:108F9400BDE8384005F0AEBF38BD00BF602B0020EF
:108FA400782B0020742B0020502B002000F0FD03B0
:108FB400012B08D1044B00225A74421E50425041E6
:108FC4001874FFF74DBF7047602B002010B5064C96
:108FD400201DFFF766FB28B9637C1BB9BDE8104070
:108FE400FFF73EBF10BD00BF602B00202DE9F34109
:108FF40080460D460F4801A916461F46FFF726FA7C
:109004000446A8B11C22002106F060FA2D0B0123AE
:10901400237101A90748C4F80080A760E560666170
:10902400FFF73EFAFFF7D2FF002002B0BDE8F0815F
:109034000420FAE7502B00202DE9F74381468846A7
:10904400104801A917461E46FFF700FA0446B0B1BE
:109054001C22002106F03AFA00250A9BA36001A90C
:10906400C4E9037807482571C4F800906661FFF7E6
:1090740017FAFFF7ABFF284603B0BDE8F0830420DE
:10908400FAE700BF502B00202DE9F84FB0F806A0F6
:109094004579D2F800B09DF828900AFB05F5043D07
:1090A40088460BEB0301A94203F1040488BFA5EB36
:1090B400030BB4FBFAF607460AFB1644C2F800B0E9
:1090C4004EB9AAEB04055D4528BF5D46BBF1000F10
:1090D40004D1BDE8F88F3F68013EF1E7043408EBA2
:1090E40006003C442A46B9F1000F0DD02146ABEBF3
:1090F400050B06F0C2F9DA452E443F6855464FF099
:10910400000428BF5D46E1E701462046EFE7FFF78C
:10911400D1BAF8B546790146721E0546002393423A
:109124002D6803D30024A64202D8F8BD0133F6E724
:109134000F682846FFF7F9FA01343946F3E72DE9B9
:10914400F843068ACD1C0746FFF7CBFA043E3544A4
:109154000446B5FBF6F5F0B14FF48073EDB28380AD
:10916400C680013D076081464FF00008A84512D231
:109174003846FFF7B6FA064648B16379013363719E
:1091840008F10108C9F8000007608146EEE72046AF
:10919400FFF7BFFF34462046BDE8F88301210430C1
:1091A400FFF767BA10B5012104460430FFF76DFAE2
:1091B40010F0FF0F04D12046BDE81040FFF7A9BF0F
:1091C40010BD1FB503920022009203AAFFF75CFFB3
:1091D40005B05DF804FB1FB503920122009203AAB7
:1091E400FFF752FF05B05DF804FB41DF7047000054
:1091F400064B10B500241C70054B1C60BFF35F8F39
:109204000449054800F039F8204610BD842B00209D
:10921400882B0020240103007C2B002007B50023A9
:109224000DF107008DF80730FEF7D0F9F1EE103A92
:1092340023F09F03E1EE103ABFF35F8F094B402206
:10924400C3F884219DF80700FEF7E4F905F062FEF7
:1092540020B1FFF7CAFF03B05DF804FB20BF40BF95
:1092640020BFF8E700E100E0836800225A60C3E908
:1092740004229A60DA601A6070470B684A68436097
:10928400934208BF0023016008BF436070474368EE
:1092940043B10268916852680B449342436004BF2F
:1092A400002343607047000010B50D49A1F5947286
:1092B400914201D800200FE08C1AE30F03EBE40382
:1092C4005B1002EBC30452F83330834205D802D258
:1092D40004F10802ECE7606810BD2146E8E700BF2E
:1092E4002806030008B5FFF7DFFF024B002808BF7C
:1092F400184608BDEA040300054B1B68082B01BF90
:10930400044B1868B0FA80F0400918BF0020704779
:10931400300100103401001008B54FF080430022E2
:10932400C3F80C21C3F81021C3F838254FF080523C
:1093340003F54043D2F80414C3F82015D2F80814F6
:10934400C3F82415D2F80C14C3F82815D2F8101455
:10935400C3F82C15D2F81414C3F83015D2F8181425
:10936400C3F83415D2F81C14C3F84015D2F82014ED
:10937400C3F84415D2F82414C3F84815D2F82814B5
:10938400C3F84C15D2F82C14C3F85015D2F8301485
:10939400C3F85415D2F83414C3F86015D2F838144D
:1093A400C3F86415D2F83C14C3F86815D2F8401415
:1093B400C3F86C15D2F84424C3F87025FFF79CFF5A
:1093C40010B1384B384A1A60FFF796FF18B1374B83
:1093D400FB22C3F81825FFF78FFF48B13449354BFA
:1093E4000A681B6822F00F0203F00F0313430B609B
:1093F400FFF782FF18B1304B4FF400721A604FF040
:109404008043D3F80024D20744BF6FF00102C3F8AD
:1094140000242A4AD2F8883043F47003C2F8883012
:10942400BFF34F8FBFF36F8F4FF01023D3F8002299
:10943400002A03DBD3F80432002B2FDA204B01225D
:10944400C3F80425D3F80024002AFBD04FF01022DF
:109454001221C2F80012D3F80024002AFBD04FF0E6
:1094640010231222C3F80422154B1A46D3F8001411
:109474000029FBD00021C3F80415D2F80034002BD6
:10948400FBD0BFF34F8F0D490E4BCA6802F4E06264
:109494001343CB60BFF34F8F00BFFDE70A4B0B4A6A
:1094A4001A6008BD8C5600404881030000F000405B
:1094B400E40E0040580200104096024000ED00E027
:1094C40000E001400400FA05402200200090D0038F
:1094D400074B1B5C1F2B8ABF064A4FF0A04203F0C8
:1094E4001F03D2F80405D840C04300F001007047C0
:1094F4002C06030000030050074B1B5C1F2B86BF88
:10950400064903F01F034FF0A041012202FA03F3BE
:10951400C1F80C35704700BF2C060300000300504F
:10952400074B1B5C1F2B86BF064903F01F034FF03C
:10953400A041012202FA03F3C1F80835704700BFC5
:109544002C0603000003005008B50020FFF7E8FFD5
:109554000120FFF7E5FF0220FFF7E2FFBDE8084026
:109564000320FFF7DDBF08B50020FFF7C5FF01208A
:10957400FFF7C2FF0220FFF7BFFFBDE8084003204A
:10958400FFF7BABF0A4B185C1F288ABF094B4FF07C
:10959400A04300F01F00D3F804250121814021EAF3
:1095A40002000A40C3F80805C3F80C25704700BF41
:1095B4002C06030000030050074B1B5C1F2B8ABFC3
:1095C400064A4FF0A04203F01F03D2F81005D8401A
:1095D400C04300F001007047280603000003005058
:1095E4000B2809D00C2809D0182809D019280CBF39
:1095F40003204FF0FF307047002070470120704770
:1096040002207047014B185C704700BF2806030016
:10961400C20710B504460CD54FF0A0430322C3F88B
:109624003427C3F83827C3F83C27C3F84027FFF78B
:109634008BFFA3070AD54FF0A0430C22C3F82C27B5
:10964400C3F83027C3F86027C3F8642710BD0000AF
:1096540038B5074C051E04F1080318BF1C462368DF
:109664002BB11A6822605B6828469847F7E738BD33
:10967400942B002020B9054B01225A70FFF7E8BF54
:10968400012802D1014A9070F8E770478C2B002022
:1096940020B9034B01225A70FFF7DABF704700BFAD
:1096A4008C2B002038B50B4C237883B90A486360AF
:1096B400A3602361E36000F0C9F8054605F02AFCC5
:1096C40008B900F0CFF801232370284638BD85255A
:1096D400FBE700BF8C2B00207996020037B50B4CBA
:1096E40000230DF107008DF80730FDF76FFFE368E5
:1096F400013BE360E56815B900F0C6F8A5709DF874
:109704000700FDF787FF03B030BD00BF8C2B00209E
:10971400012813B508D003281CD018B9104B012216
:10972400C3F8802002B010BD0E4C00230DF10700D9
:109734008DF80730FDF74AFF23780BB9FFF7B2FF26
:10974400E3689DF807000133E3600123A370FDF78C
:1097540061FFE7E700F086F8FFF7C0FFE2E700BF2C
:1097640000E100E08C2B00201FB503788DF8003059
:109774004368019383688DF80830C368054A0393EE
:10978400054B684653F8213052F82110984705B02C
:109794005DF804FBA02B0020A82B00201FB5037844
:1097A4008DF800304368019383688DF80830C368EE
:1097B400054A0393054B684653F8213052F82110AB
:1097C400984705B05DF804FBA02B0020A82B0020CF
:1097D400F0B5194B90F800C0DFF86CE043F82C208A
:1097E400164B16460A6943F82C204B7F0EF80C30B2
:1097F4000C4607460FCC89B06D460FC594E80F00A0
:1098040085E80F001EF80C30CDF810C04BB1002EC7
:109814000B4A694608BF3246381D00F0C5FD09B041
:10982400F0BD002E074A694608BF324607F10C0016
:1098340000F0B0FBF3E700BFA82B0020A02B002012
:109844006D970200A1970200B02B0020044A1379FF
:1098540023B9012110609180184670478520704714
:10986400B42B0020074B1A68D2075FBFC02283F8CD
:10987400002301221A604FF080430122C3F8182507
:10988400704700BF00E100E0044B01221A604FF072
:109894008042D2F81834DB03FBD470470C0000403C
:1098A400154B07B51A687AB100221A601B68009339
:1098B400009B4FF080430122C3F808230F4B5879D3
:1098C40010B95A711B6898470D4B1A6882B100226F
:1098D4001A601B680193019B4FF080430222C3F876
:1098E4000823064B1B68012003B05DF804EB1847FE
:1098F40003B05DF804FB00BF00010040B42B00205E
:109904000401004000F1804000F5C040002382B013
:10991400036003680193019B02B0704703681F2B27
:1099240083BF03F01F03036001484FF0A04070475A
:109934000003005007B5019001A8FFF7EFFF019B5A
:1099440000EB8300D0F8003723F44033C0F800372D
:10995400D0F8003743EA0141C0F8001703B05DF8BE
:1099640004FB0000054B4FF0FF32072843F820208A
:1099740084BFC01880F85820704700BFBC2B00205B
:1099840010B5174C94F86A3043BB04F1300330210E
:10999400FF22013911F0FF0103F8012BF9D1C8B2FC
:1099A400FFF7E0FF01310C29F9D1062200210D480F
:1099B40005F08CFD0C4BC02283F8062340221A606C
:1099C4004FF4BE70FFF79EFF084B4FF00042C3F800
:1099D4000423012384F86A30002010BD0820FCE72A
:1099E400BC2B0020202C002000E100E0006000409F
:1099F400034B93F86A00003818BF0120704700BF7A
:109A0400BC2B0020F7B53B4E3318054693F9303094
:109A1400002B6CDA8B78C3F34003002B0BBF0824B4
:109A240000240C200820844202D1042003B0F0BD9D
:109A340056F82470013743D1701946F8242080F871
:109A4400304013B9331983F858508B785A0717D418
:109A5400D80737D501A80195FFF760FF019B00EBFC
:109A64008300D0F8003723F00203C0F800372248FF
:109A7400EA0805F007070123BB40875C3B43835496
:109A84008B780A7813F0020328D0A40004F18044F0
:109A940004F5C0442D02D4F8103523F44F3323F4D5
:109AA4004073C4F810351204D4F8103505F47C550D
:109AB40002F4403215431D43C4F810550020B5E7A5
:109AC4000134B0E701A84A780195FFF727FF019B0D
:109AD40003F5E073920040F82320C8E7083C3444BF
:109AE40094F8605045EA821284F86020E6E7082082
:109AF4009CE700BFBC2B0020202C002073B5224C17
:109B04002618054696F93020072A1ADD224492F8D1
:109B140058309B09032B0FD1019001A8FFF7FEFEDB
:109B2400019BD0F81015D94001F0010102312846FB
:109B3400FFF700FF02B070BD012B0CBF022103210F
:109B4400F5E7D3B2072BF5D8930003F1804303F56F
:109B5400C043D3F8100540F00100C3F8100502F12A
:109B64004000800080B2FFF7CDFE0029E2D096F9D4
:109B7400303054F82330002BDCD0012303FA02F2F6
:109B8400024BC3F80423D5E7BC2B0020006000403F
:109B940007B5019001A8FFF7C1FE019BD0F810059D
:109BA400D84000F0010003B05DF804FB2DE9F04F4C
:109BB400002489B0CDE90244624D4FF48072012142
:109BC40002F1804303F5C04390B21B68012B06D118
:109BD400D5F804330B4202D0FFF794FE0C43043251
:109BE400B2F5907F4FEA4101EAD1574B1B68012B34
:109BF4000ED14FF4BE70FFF785FE4FF0A04344F042
:109C04000044D3F810350293504BD3F81035039326
:109C140014F0FF0F1AD04E4F00250126344210D005
:109C2400AB0003F1804303F5C043D3F81005D3F828
:109C3400101557F8253023B1C1F30141C0F30520B5
:109C440098470135082D4FEA4606E7D1002C75DA0E
:109C540004AF002304937B604FF0FF33CDE9063358
:109C6400DFF8EC90DFF8EC800026354618F9012B7C
:109C7400531C4AD0C2F3C2000123D4B202F03F0BFA
:109C840002F0070203FA02F208AB191811F8083CB3
:109C940013423AD009EB0B03A40993F9303059F875
:109CA40023A0BAF1000F08D1032C2ED117F800C05D
:109CB4004CEA020C07F800C001E0032CF6D001A81E
:109CC400CDF804B0FFF72AFE019B11F8181C03F528
:109CD400E07C114250F82C00C0F3014005D002286A
:109CE40013D1032C0BD1214604E003280DD1032CFE
:109CF40005D102215846FFF71DFE0135EDB2BAF138
:109D0400000F02D021465846D0470136042EADD16B
:109D1400A5B14FF0A0430299D3F8102503F5407381
:109D24009142D3F8103502D10399994206D0029298
:109D34000393049A059B0692079393E709B0BDE841
:109D4400F08F00BF006000407C61004000030050C1
:109D5400BC2B00201C2C0020014B1B68184700BFA3
:109D6400282C00200E4B984237B50C4602D0002018
:109D740003B030BD00230DF107008DF80730FDF767
:109D840025FC084B1D7915B901221C601A719DF838
:109D94000700FDF73FFC002DE9D01120E8E700BFE4
:109DA40000200040282C0020034B984201BF034BA5
:109DB40000221A601A71704700200040282C0020ED
:109DC4000023435082B043580193019B02B0704773
:109DD4000A4610B54FF48E71FFF7F2FF136A9168CB
:109DE400C95C136A01331362C0F81C1510BD8B697A
:109DF4000A4610B54FF4847123B9FFF7E1FFD0F898
:109E0400183510BDFFF7DCFF536AD168D0F8180588
:109E1400C854536A01335362F3E700001FB50123AA
:109E24008DF80030044BCDE90110D3E900126846E7
:109E3400904705B05DF804FB302C002030B54B484A
:109E4400D0F8043313F4007F85B005464DD0D0F824
:109E54002431002B49D04FF49271FFF7B1FF4FF436
:109E64000173C0F80833424B93F829200AB9012240
:109E740042603E4902228DF80020D1F88024C1F8C6
:109E8400802403929A690292DA6801920022C3E95B
:109E940006226846D3E9001290473448D0F81C31B2
:109EA4005BB133490A6A4B699A420A464AD291F82D
:109EB4002830002B46D1FFF78BFF2C48D0F84431D3
:109EC4008BB14FF4A271FFF77BFF294B93F8292044
:109ED4000AB1012202609A692AB10022586AD9683B
:109EE4009A61FFF79BFF05B030BDD5F804335B07DB
:109EF400D3D5D5F80831002BCFD01D4C1B482146B3
:109F0400FFF775FF636AA2699A422346C5D1E269E5
:109F1400E1684AB12369E3600023606AA261E361F6
:109F24006362FFF77BFFB8E794F829200AB901229E
:109F34006A600E4A4FF40170C2F808030022586A9E
:109F44009A61EEE74FF48E710848FFF739FF5169C3
:109F54000029B2D00023029191688DF8003001915C
:109F640053616846D2E900139847A6E700200040F1
:109F7400302C00201F2886BF00F01F00044B4FF038
:109F8400A04300F5E070022243F82020704700BF90
:109F9400000300502DE9F843634B057991462C22C8
:109FA40002FB0532064692F82A200C469846002AFF
:109FB40040F0B6805D490068FFF7D4FE07460028EC
:109FC40040F0B08021684A1C10D01F2987BF584A2E
:109FD40001F01F030B464FF0A0420120984003F507
:109FE400E073C2F80805032042F823006068431CAC
:109FF4000DD01F288BBF00F01F0303464C4A4FF0BF
:10A00400A04203F5E0734FF0000C42F823C033681C
:10A01400A269C3F8242594F814C0627DBCF1010F31
:10A024004CEA0202C3F86C25C3F81405C3F80C15F6
:10A034002BD1A168481C0DD01F298BBF01F01F0232
:10A044000A463B484FF0A04002F5E0724FF0000C86
:10A0540040F822C0E068421C13D01F2887BF344A4E
:10A0640000F01F0C84464FF0A0424FF0010E0EFA90
:10A074000CFE0CF5E07CC2F808E54FF0030E42F844
:10A084002CE0C3F80805C3F810152C236B4308EB28
:10A094000302C2F80490226948F80320B9F1000FC2
:10A0A4002BD03068247F4FF48E71FFF789FE30681F
:10A0B4004FF4A271FFF784FE32681E4BC2F80433DA
:10A0C400110B42F30732002AA8BF02F160404FEAA5
:10A0D4004413BABF184801F00F0400F56140DBB225
:10A0E400B4BF035580F8003301F01F01012303FAC4
:10A0F40001F15209114B43F8221033680422C3F8CA
:10A1040000252C2303FB05830022C3E9062283F8E0
:10A1140029205A61012283F82A203846BDE8F883B1
:10A124000827FAE71127F8E7302C0020419E0200A7
:10A13400000300508000020014ED00E000E100E0A4
:10A144002DE9F04103680479244D0022C3F8002569
:10A154002C2202FB0452014652686AB1204AC3F819
:10A16400082343F30732C3F3043652090120B040F5
:10A1740020321C4E46F82200D3F80C05D3F814857F
:10A18400D3F80865D3F810754FF0FF329042C3F846
:10A194001425C3F80C25C3F80825C3F8102501D0ED
:10A1A400FFF7E8FEB8F1FF3F02D04046FFF7E2FEBA
:10A1B4007A1C02D03846FFF7DDFE731C02D030460D
:10A1C400FFF7D8FE0868FFF7EFFD2C2303FB0454C8
:10A1D400002384F82A306360BDE8F081302C00202D
:10A1E4008402020000E100E02DE9F843204B0779E6
:10A1F4004FF02C0909FB0734054666699846002E82
:10A2040033D100686261A16026624FF48E7184F8D4
:10A214002860FFF7D5FD2868012383602146FFF7F6
:10A22400D7FD6368A14683B92868226A63699A42A4
:10A2340011D32B68D3F81C21002AFBD00122DA6049
:10A244002C2303FB078300225A613046BDE8F883C0
:10A2540094F828303BB9D0F81C31002BF8D049468B
:10A26400FFF7B6FDE1E70F26EAE71126EDE700BFA9
:10A27400302C00200023435082B043580193019BAB
:10A2840002B070471FB501238DF80030044BCDE9AF
:10A294000110D3E900126846904705B05DF804FB4D
:10A2A4005C2C00207FB5364AD2F82461002E46D0BB
:10A2B40010464FF49271FFF7DDFF02238DF8003052
:10A2C400D2F88034C2F880340393D2F83C35029338
:10A2D4002C4BDA6801920022C3E906226846D3E9CE
:10A2E400001290472648D0F8443173B14FF4A2715C
:10A2F400FFF7C0FF234B9A693AB10022C3E9062253
:10A30400D968D0F83C05FFF7BDFF1D48D0F82031CF
:10A314009BB14FF49071FFF7ADFF1A4B5A6962B1CC
:10A32400D0F84C150291002299688DF80020019113
:10A334005A616846D3E90012904704B070BDD2F860
:10A344001031002BCED04FF488711046FFF792FFE6
:10A354000C4BD2F83C0599698842C3D1DC69D968B1
:10A3640064B1D2F8005225F02005C2F800521A69EF
:10A374009C61DA60DE61FFF785FFB3E79C61FAE771
:10A38400002000405C2C00201F2886BF00F01F0026
:10A39400044B4FF0A04300F5E070022243F8202064
:10A3A400704700BF000300502DE9F843674B06795E
:10A3B4009146242202FB0632044692F820200D46E0
:10A3C4009846002A40F0BE8061490068FFF7CAFC45
:10A3D4000746002840F0B8802868421C10D01F2887
:10A3E40087BF5C4A00F01F0303464FF0A0420121DF
:10A3F400994003F5E073C2F80815032142F82310CD
:10A4040069684B1C0DD01F298BBF01F01F030B463D
:10A41400504A4FF0A04203F5E0734FF0000C42F8AD
:10A4240023C02368AA69C3F8242595F814C06A7D5B
:10A43400BCF1010F4CEA0202C3F86C25C3F80C0509
:10A44400C3F814152BD1A968481C0DD01F298BBF44
:10A4540001F01F020A463F484FF0A04002F5E072A7
:10A464004FF0000C40F822C0E868421C13D01F28AB
:10A4740087BF384A00F01F0C84464FF0A0424FF0CB
:10A48400010E0EFA0CFE0CF5E07CC2F808E54FF064
:10A49400030E42F82CE0C3F80805C3F81015242372
:10A4A400734308EB0302C2F804902A6948F80320B6
:10A4B400B9F1000F35D020682A7F4FF48871FFF777
:10A4C400D9FE20684FF49071FFF7D4FE20684FF452
:10A4D4009271FFF7CFFE20684FF4A271FFF7CAFE16
:10A4E40023681D49C3F80413190B43F30733002BE6
:10A4F400AEBF03F1604001F00F0518484FEA421265
:10A50400A8BF00F56140D2B2B4BF425580F8002321
:10A5140001F01F01012202FA01F15B09104A42F81D
:10A52400231023680822C3F80025242303FB068391
:10A534000022C3E906225A61012283F8202038460A
:10A54400BDE8F8830827FAE71127F8E75C2C002018
:10A55400A9A20200000300501003020014ED00E061
:10A5640000E100E02DE9F04103680479244D002264
:10A57400C3F80025242202FB0452014652686AB142
:10A58400204AC3F8082343F30732C3F304365209BD
:10A594000120B04020321C4E46F82200D3F80C05AE
:10A5A400D3F81485D3F80865D3F810754FF0FF324B
:10A5B4009042C3F80C25C3F81425C3F80825C3F842
:10A5C400102501D0FFF7E0FEB8F1FF3F02D040466E
:10A5D400FFF7DAFE7A1C02D03846FFF7D5FE731C6B
:10A5E40002D03046FFF7D0FE0868FFF7DDFB2423D6
:10A5F40003FB0454002384F820306360BDE8F08139
:10A604005C2C00201003020000E100E001F0604334
:10A61400B3F1005F2DE9F041064632D11B4B0779B7
:10A62400242505FB073598466C6964BB6A6100689C
:10A63400A9604FF49071FFF71DFE4FF4AC713068C0
:10A64400FFF718FE33686A69A968C3F84415C3F8AC
:10A65400482501229A606A6862B9D3F82021D3F8A8
:10A66400584152B9002CF8D00F24242303FB078748
:10A6740000237B612046BDE8F081002C18BF0F2425
:10A68400F3E71024F6E71124F4E700BF5C2C002064
:10A694000220FEF777BF00002DE9F04780460D4603
:10A6A400FEF79EFF0328044610D8012D10D0022D7A
:10A6B40030D05DB91A48FCF779FF1A4B04EB440219
:10A6C40013449E78184B1B5DB34219D0BDE8F08744
:10A6D400144D00EB4002A918AE5C4A78470052B111
:10A6E400DFF84C900E484A464FF40041FCF716FF41
:10A6F40008B989F800803B192B449A780A4B1A55FB
:10A70400002EE3D0094B1B68002BDFD03046BDE898
:10A71400F047184700EB4004024804446678EFE72A
:10A72400A42C0020E42C0020FD2C0020F82C002078
:10A73400802C002000780221FFF7AEBF08B5094B3A
:10A744001B7853B10020FEF7EBFE0120FEF7E8FE74
:10A75400BDE808400320FEF7E3BEBDE80840FEF76D
:10A76400F3BE00BF812C0020F8B57B4C237805464E
:10A774001BB100232370FFF7E1FF172D00F288803F
:10A78400DFE805F00C17174354657680888D888DB3
:10A79400959A9A9A9A9AC4C9D1D9E4E4FFF7CEFF5C
:10A7A4006E48FCF703FF6E4B002204461A702046E5
:10A7B400F8BD0020FEF78CFEF8B10020FEF7B0FED5
:10A7C400022D0CBF4FF4E1614FF47A61644B1D70AC
:10A7D4004FF400404FF4FA740025E0FB01454FF4B8
:10A7E4007A7200232046294604F0FCFC002201462C
:10A7F400BDE8F8405948FCF791BEFEF77DFE022DF6
:10A804000CBFC8214FF4C871E0E70020FEF760FEDA
:10A8140040B10020FEF784FE4FF44871504B0322F0
:10A824001A70D5E7FEF768FEC821F7E70020FEF7A7
:10A834004FFE38B10020FEF773FE4FF47A61484BA7
:10A844000422EDE7FEF758FE4FF4C871F7E7002045
:10A85400FEF73EFE48B10020FEF762FE404B0522A3
:10A864001A7041F69A110022C2E7FEF745FEF5E799
:10A874000020FEF787FE3A4B06221A70002240F6AB
:10A88400CD41B5E70020FEF737FE354B07221A709D
:10A8940000248CE701202070FEF774FEEEE701200F
:10A8A4002070FEF76FFE00224FF48041A0E7FEF710
:10A8B4005AFE2B4B0C22EAE72A482B4EFCF776FE75
:10A8C400D5F1110504461CD0D8B9012D13D0C823E5
:10A8D4005D434FF400474FF4FA7000214FF47A724D
:10A8E4000023C7FB050104F07DFC224601461D48F8
:10A8F400FCF714FE04460220FEF7FEFD012333702C
:10A9040055E70220FEF70CFE0023F8E7FFF716FFD9
:10A91400134B1222BBE7FFF711FF0020FEF7ECFDFB
:10A924000F4B1322B3E7FFF709FF0120FEF7E4FD05
:10A934000B4B1422ABE7FFF701FF0020FEF7DCFD11
:10A944000120FEF7D9FD064B1522A0E7FEF70BFE0A
:10A95400034B1D709CE700BFF42C0020C42C002086
:10A96400FC2C0020842C0020812C0020044B1B682C
:10A97400DB0703D5034B1878FFF7F6BE704700BF1B
:10A98400F02C0020FC2C0020002910B514BF032457
:10A994000024FEF737FE1F288ABF0A4B4FF0A0435E
:10A9A40000F01F0003EB8000D0F8002722F44032AF
:10A9B400C0F80027D0F8003743EA0443C0F8003752
:10A9C400002010BD00030050032801D8FEF7F4BD99
:10A9D40000207047044B1B6813F0010301D0FFF7FC
:10A9E400C3BE1846704700BFF02C002038B51C4B7E
:10A9F40018601C4B10F00204054619601AD01A4B5B
:10AA04001A480E221A700F22DA7010229A7111223B
:10AA14005A72042140F26662FCF77AFA044648B995
:10AA2400FCF7CAFA044628B90146114A1148FCF752
:10AA340063FD0446EB0711D50120FEF7E9FD6CB96F
:10AA440021460D4A0D48FCF757FD044630B9BDE8D0
:10AA540038400B4A0B480121FCF74EBD204638BD57
:10AA6400F02C0020F82C0020E42C002054060300D5
:10AA740039A702007806030071A902007C060300CE
:10AA840095A6020074060300032811D8012A0AD1EE
:10AA940001290FD100F10E02D2B20D4B00EB4000A0
:10AAA4001A54002070470129F7D0022904D049B173
:10AAB400072070470022F8E7054B00EB40001844DC
:10AAC4004270EEE7024B00EB400018448270E8E766
:10AAD400E42C0020032802D80121FFF755BF0620EB
:10AAE400704708B5012202210020FFF7CDFF08B10D
:10AAF400072810D1072202210120FFF7C5FF08B162
:10AB0400072808D100210A220846FFF7BDFF10B12B
:10AB1400072808BF002008BD0388102B10B502D0F9
:10AB2400112B1ED010BD1A4C2168B1B90122084660
:10AB3400FFF7AAFF08B1072824D107220221012028
:10AB4400FFF7A2FF08B107281CD10422022100202C
:10AB5400FFF79AFF08B1072814D123680133236053
:10AB6400E0E70B4A1368013B1360002BDAD1FFF7CF
:10AB7400B8FF0028D6D0074B1B68002BD2D0BDE805
:10AB840010401847034B1B68002BE6D09847E4E7B6
:10AB9400082D0020042D002008B50020FFF79AFF9F
:10ABA40008B1062806D10120FFF794FF10B106284A
:10ABB40008BF002008BD00000D4B10B518600C46FE
:10ABC40029B10120FFF700FF40B102232370094B94
:10ABD4001B6853B9BDE81040FFF783BFFFF7F4FECD
:10ABE40008B10B23F2E72070F1E7002010BD00BF8D
:10ABF400042D0020082D002076DF70477ADF70478F
:10AC04007CDF70478FDF704733DF7047FCF7EAB9AA
:10AC140008B50020FFF7DEFE08B1FCF7E3F9FFF703
:10AC2400BBFF08B1FCF7DEF9FFF7EEFF18B1BDE892
:10AC34000840FCF7D7B908BD0388212B13B5044697
:10AC440035D005D8102B17D0112B0AD002B010BD67
:10AC54003B2B01D0562BF9D1A0881321FFF7CCFF51
:10AC640020E0174B17481849C01AC008000440F0E8
:10AC74000300FBF711FFE9E7114B12481349C01A0F
:10AC8400C008000440F00300FBF706FF0720FFF7AD
:10AC9400A1FE08B1FCF7A6F90D4BA1880D48198057
:10ACA40002F0F6F90028D1D0FCF79CF9CEE7002396
:10ACB40001A98088ADF80430FFF7A4FFF2E700BFD4
:10ACC400D4FC0200FCFC0200800603008E06030094
:10ACD40048220020782F002008B503784BB9054B93
:10ACE4003B211888FFF788FF18B1BDE80840FCF73E
:10ACF40079B908BD48220020072808B513D00A28CE
:10AD04000DD0042819D10D4B13211888FFF774FFB7
:10AD140030F0080311D0BDE80840FCF763B9BDE882
:10AD24000840FFF775BF054B1A884FF6FF739A4228
:10AD340003D1034800F0DFFEEAE708BD4822002003
:10AD44000C2D002008B598B1032815D10B4B0C48E5
:10AD54000C49C01AC008000440F00300FBF79CFE35
:10AD64000220FFF737FE38B1BDE80840FCF73AB9D6
:10AD7400BDE80840FFF74CBF08BD00BFD4FC02008B
:10AD8400FCFC02009906030008B50548032100F005
:10AD94006CFD18B1BDE80840FCF724B908BD00BF3C
:10ADA4000C2D002030B5037885B004460D2B12D845
:10ADB400DFE803F00711131125112D3C1138113C64
:10ADC400353C1B481B4B1C49C01AC008000440F00A
:10ADD4000300FBF761FE05B030BD4088144D01F05F
:10ADE40087F802461348237A00932D1AED082D04A0
:10ADF4006388124945F00300FBF765FEEBE7002387
:10AE040040888DF80C3003A902F0B6FFE3E7FDF7A4
:10AE140095FA30F00803DED0FCF7E4F8DBE7FFF73F
:10AE2400B3FFD8E700690028D5D0F5E78068FAE7D2
:10AE3400FCFC0200D4FC0200AB060300D4060300B1
:10AE4400FCF7D0B800B54FF40041ADB00020FBF7DB
:10AE54006DFC08B1FCF7C6F8FBF79EFBFCF71CFB86
:10AE640008B1FCF7BFF871490320FFF7BFFD08B133
:10AE7400FCF7B8F801A90020FFF79EFE08B1FCF723
:10AE8400B1F89DF80450FEF7B3F908B1FCF7AAF83D
:10AE940003F0C2FF08B1FCF7A5F8002301A90120C3
:10AEA400019304F081F808B1FCF79CF801A804F0C0
:10AEB4002DF908B1FCF796F811235D488DF80030A0
:10AEC40004F059FB5A4982B26846FFF799FE08B16B
:10AED400FCF788F80021082201A804F0F7FA554984
:10AEE4004FF0C87301A8CDE90113FFF787FE08B13D
:10AEF400FCF778F85048002101F0C2FF08B1FCF7D4
:10AF040071F8AC22002101A804F0E0FA02238DF8C4
:10AF1400043040F20163494AADF806300123ADF82C
:10AF2400143006928DF880304FF4967244F25063D8
:10AF3400CDE923234248434B2A9301A900F01EFC88
:10AF440008B1FCF74FF83E48012100F014FC3E4BD9
:10AF54003E48019301A902F089F808B1FCF742F8D0
:10AF64001C22002101A804F0B1FA00234FF420327E
:10AF7400CDE90132ADF812304FF470228DF814305F
:10AF8400334B039206930322324B8DF8102001A811
:10AF9400079300F0CDFE08B1FCF724F802F048FE58
:10AFA40008B1FCF71FF80522002101A804F08EFA6D
:10AFB400019B03F07C42284B134301939DF8083016
:10AFC40023F0030343F0030301A88DF8083002F0D3
:10AFD400C9FE08B1FCF706F8204802F0ABFE08B140
:10AFE400FCF700F81E4B1F4C1F49E41AE408240424
:10AFF40044F003042046FBF74FFD1C4800F012F90F
:10B00400022D0FD11A492046FBF746FD02F0C2FE7D
:10B0140008B1FBF7E7FFFBF7E3FB0028FBD1FEF7E2
:10B02400FDF8F8E7FFF7B0FEF5E700BFFDAC02005E
:10B03400140703005000A000642F002044220020C5
:10B044000C2D002049AD020011AC0200782F002025
:10B05400DDAC020045AE020031071003A9AD0200C9
:10B06400D4FC0200FCFC02001F07030035070300A8
:10B074004F0703000369C1688B429DBF8268D218E1
:10B0840002F1FF3203F1FF3394BF501A581A70478C
:10B094002DE9F843D0E902940546A9EB0408406879
:10B0A400904520440F46144404D904F0E6F9EC60BA
:10B0B400BDE8F8834246A4EB090404F0DEF96868AD
:10B0C400224607EB0801F0E72DE9F843C568064678
:10B0D400894617464FF000083469B3687068A54282
:10B0E40028BFE418013C621B5C1BBC4228BF3C46E1
:10B0F400944228BF144649462844224604F0BDF928
:10B10400B3682544AB4208BF00253F1BA044A144BB
:10B11400F560E1D14046BDE8F883000010B5114C5C
:10B12400114AA2610223C4E90433104BE361A2640F
:10B134004FF400730E4A0F492362E2640023102285
:10B14400E01DA3626362E362A3656365E365226550
:10B1540004F0EFF90849204604F0EBF92023A37129
:10B1640010BD00BF842F00205C0703000C300020BA
:10B17400FC2F00206507030069070300F8B5184C8D
:10B18400182300FB033503FB00402544C46A012C4B
:10B194000F4616460FD0022C1AD0F4B92846FFF7F2
:10B1A40069FF864205D8324639462846FFF770FFC4
:10B1B40034462046F8BD2846FFF75CFF86423446F5
:10B1C40028BF0446224639462846FFF761FFF0E7C8
:10B1D4002846BDE8F840FFF777BF0024E9E700BF41
:10B1E400842F002073B50E4B1B7804460D4616467B
:10B1F4000BB9FFF793FF00230DF107008DF807301B
:10B20400FCF7E4F9324629462046FFF7B7FF044627
:10B214009DF80700FCF7FEF9204602B070BD00BFA0
:10B22400842F00200FB410B5A2B024AB802153F8B2
:10B23400042B019302A804F012F9802804460ADDC5
:10B24400802202A90020FFF7CDFF204622B0BDE8EE
:10B25400104004B070470028F7DD0246F1E76DDFC7
:10B26400704779DF70477DDF704764DF70472DE9F1
:10B27400F04F85B000250E9CBDF83CB0B4F800A09A
:10B284000191074690461E46A9463A884A450DDC78
:10B2940045B12388013BA3EB0A039BB2FF2B3AD8A9
:10B2A40006F80A30002005B0BDE8F08F7A6852F83D
:10B2B4002900039000220DF10B0103A8FFF7D5FF2D
:10B2C4000028F0D19DF80B20424521D12288002D81
:10B2D40014BF0020022002EB0801014459451ADC86
:10B2E4003DB9013292B2019B2280B35422880132CB
:10B2F400228022880DF10B01324403A8FFF7B5FF29
:10B304000028D0D121889DF80B200A4422800125F1
:10B3140009F10109B9E70C20C5E72DE9F341089FBC
:10B32400BDF824801546CDE90078022204461E4665
:10B33400FFF79DFF50B93346102229462046CDE938
:10B34400087802B0BDE8F041FFF791BF02B0BDE854
:10B35400F0812DE9F04F00231788138090F82D30E9
:10B3640085B006460D46144653B3082F01D80C2069
:10B3740027E102A8FFF773FF002840F02281238809
:10B384000822EA54238801339BB21B222380EA5407
:10B394002088013080B2208006220DF10901284462
:10B3A40004F06BF823889DF8082006339BB212F052
:10B3B400FE0218BF01222380EA542388013323802C
:10B3C400B378FBB123880433BB42D0D802A8FFF77B
:10B3D40048FF002840F0F58023880322EA5423889C
:10B3E40001339BB219222380EA542388BDF8082034
:10B3F40001339BB2E9182380EA54120A4A70238865
:10B4040002332380F2789AB12388D91CB942AED88A
:10B414000221E954238801339BB201212380E9549A
:10B4240023880B449BB22380EA5423880B44238053
:10B434007268AAB12388D91CB94298D8022192F91A
:10B444000020E954238801339BB20A212380E95464
:10B45400238801339BB22380EA5423880133238059
:10B464003389002B40F0A180338A5BB1CDE90047DA
:10B474002B460722032106F11000FFF74EFF002898
:10B4840040F09F80338B5BB1CDE900472B461522FA
:10B49400142106F11800FFF740FF002840F09180C6
:10B4A400326A002A40F09080D6F82480B8F1000F68
:10B4B40030D0B8F804302188981C8A1C0244BA425F
:10B4C4003FF655AFFE283FF652AF03336B54238843
:10B4D40001339BB2FF222380EA54238801339BB2B9
:10B4E4002380B8F80020EA54E918120A4A70208828
:10B4F400023080B22080B8F804205AB1D8F808107D
:10B5040000296BD0284403F0B8FF2388B8F804203E
:10B514001344238096F82C30002B40F09A80307826
:10B5240000284ED03388012B58D0228802F1020C17
:10B53400BC453FF61CAF012805D173780233134490
:10B544009F42FFF414AF023FBF1ABFB202A905EB3A
:10B554000C00ADF80870FFF786FE90BB3178BDF89B
:10B564000830022900F0BA8072789A4202D3BB42B2
:10B5740040F2B280012940F0B380974293B2C0F008
:10B58400AF80ADF808300821BDF80830FE2B3FF637
:10B59400EEAE22880133AB542288013292B222806B
:10B5A400A9542288134423800BE0CDE900472B469D
:10B5B4000622022106F10800FFF7AFFE00283FF43F
:10B5C40053AF05B0BDE8F08FB4F800C00CF106032A
:10B5D400BB423FF6CCAE1188052901D80720F0E71D
:10B5E4006FF4486E01EB0E039BB24FF27D3E734540
:10B5F400F4D95388052BF1D96FF44860181880B238
:10B604007045EBD94FF6FF70814203D0834201D0DD
:10B614009942E3D8052305F80C30238801339BB203
:10B6240012212380E954238801339BB2238011889B
:10B63400E954E818090A4170238802339BB2238035
:10B644005288EA54E918120A4A7023880233238084
:10B654002AE7B36A002BC1D04FF000094FF00C0A5F
:10B664004FF0160B96F82C305FFA89F293427FF66E
:10B6740056AFB16A0AFB02F201EB0208B8F80430D3
:10B68400981CFE283FF673AE208803332B5423887E
:10B6940001339BB2238005F803B0238801339BB2A6
:10B6A40023808A5AEA54E918120A4A702088023020
:10B6B40080B22080B8F804205AB1D8F808100029C4
:10B6C4008CD0284403F0D9FE2388B8F8042013440E
:10B6D400238009F10109C5E7092155E7BB42FBD9DC
:10B6E400ADF808704FE770B5C0B14AB116880024B0
:10B6F400B44203D305196D789D4208D0A14201D804
:10B7040000200BE0055D01352C44A4B2F0E7A14212
:10B71400F6D9A31C1380005D013880B270BD13B547
:10B7240013460022ADF806200DF106020446FFF789
:10B73400DAFF10B1BDF80630E01802B010BD72DFB8
:10B74400704773DF704774DF704738B501220446D1
:10B754000D46B0F83812D0F83402FFF7E0FF00B11C
:10B76400057004F13C0204F50D7104F15400BDE8C8
:10B774003840FFF7E4BF80F830107047F8B504464E
:10B784000F4600296DD000286BD091F87A301BB198
:10B7940091F89830002B66D14FF0000C84F802C069
:10B7A40007F178060FCE251D0FC50FCE0FC596E8FD
:10B7B400070085E8070084F830C0D7F8A430636335
:10B7C400D7F8A830A3634FF6FF7504F50D73C4F8DA
:10B7D4004432A4F848520722614604F24A2003F096
:10B7E40075FE23780BB984F8545094F82430002B58
:10B7F40014BFEE231F2304F15501C4F83412A4F836
:10B80400383204F50E723846FFF7A3FD40BB94F8B6
:10B814002430002B14BFEE231F2304F24311C4F879
:10B824003C12A4F8403204F5107207F13C00FFF713
:10B8340090FDA8B9A369A4F848304FF4807301259A
:10B84400A4F8503063692064014684F83C50636472
:10B8540004F13C0204F15400FFF771FF00B92570B4
:10B86400F8BD0E20FCE70720FAE7F8B50778044690
:10B874000D46002F00F0078100F24A26817007224E
:10B884000021304603F022FEE38813B1A378012B94
:10B8940004D0E3794BB1A378022B06D1636B9BB13F
:10B8A400012284F8512208209847324604F5147185
:10B8B40012F8013F5BB99142FAD16A1E032A52D8A9
:10B8C400DFE802F0070D111484F85132EDE73B462E
:10B8D400F3E7A2791AB194F8242002B95BB9E279AA
:10B8E4000AB1002B41D1237A002B40D1637A002B7B
:10B8F4000CBF00250425636BA570002B39D0033DD4
:10B90400012D36D86279A2B394F852228ABB84F806
:10B914005422012284F853220720984704F13C055D
:10B9240018220021284603F0D1FDE26A0123511EAA
:10B93400994284F83C3001D9042A1ED1D3B294F838
:10B94400242084F851301AB1CFB1A36A84F852305C
:10B95400A178002384F8503004291FD8DFE801F0CF
:10B964007B1126395D000025C5E70225C3E70325C1
:10B97400C1E7002384F85332D0E70027DFE701232F
:10B98400E4E7C4E91063C4F844320223012284F8D2
:10B994003C30802384F83120A4F84830A378002B6D
:10B9A4005CD1636B002B6AD1002067E00223002A7C
:10B9B40084F8313014BF0723032384F83C3023690F
:10B9C400A4F848300023C4F84432E368266463646E
:10B9D400E4E763696364A369A4F8483012B10623F9
:10B9E40084F83C306379B3B194F852329BB994F83B
:10B9F400543283B1022384F8503004212046FFF7E7
:10BA0400A4FE0028CAD1052384F8313004F50D734F
:10BA1400C4F84432C2E70323F6E7E3696364236AA4
:10BA2400A4F8483012B1062384F83C30637983B11A
:10BA340094F852326BB994F8543253B1022384F817
:10BA4400503004212046FFF780FE0028A6D10623AB
:10BA5400DAE70423D8E784F831309FE7D4F84412B6
:10BA64002A4604F15400FFF76AFE38B994F83010FE
:10BA740094F85400FFF765FE002892D0F8BD94F8BE
:10BA84003100984790E70820F8E70388112B10B598
:10BA94000C460AD0262B1FD0102B05D1C37B012BBB
:10BAA40002D18388A1F8483210BD0022838881F82E
:10BAB4005222B1F848229A42F6D10B79002BF3D1E5
:10BAC40001212046FFF7D1FE0028EDD0A36B002B07
